{
  "contractName": "greeter",
  "abi": [
    {
      "anonymous": false,
      "inputs": [
        {
          "indexed": false,
          "internalType": "string",
          "name": "_g",
          "type": "string"
        }
      ],
      "name": "Approval",
      "type": "event"
    },
    {
      "constant": false,
      "inputs": [],
      "name": "kill",
      "outputs": [],
      "payable": false,
      "stateMutability": "nonpayable",
      "type": "function"
    },
    {
      "constant": false,
      "inputs": [
        {
          "internalType": "string",
          "name": "_greeting",
          "type": "string"
        }
      ],
      "name": "setGreeting",
      "outputs": [],
      "payable": false,
      "stateMutability": "nonpayable",
      "type": "function"
    },
    {
      "constant": true,
      "inputs": [],
      "name": "greet",
      "outputs": [
        {
          "internalType": "string",
          "name": "",
          "type": "string"
        }
      ],
      "payable": false,
      "stateMutability": "view",
      "type": "function"
    },
    {
      "constant": false,
      "inputs": [],
      "name": "fire",
      "outputs": [],
      "payable": false,
      "stateMutability": "nonpayable",
      "type": "function"
    }
  ],
  "bytecode": "0x60c060405260076080819052667465737431323360c81b60a09081526100289160019190610040565b50600080546001600160a01b031916331790556100db565b828054600181600116156101000203166002900490600052602060002090601f016020900481019282601f1061008157805160ff19168380011785556100ae565b828001600101855582156100ae579182015b828111156100ae578251825591602001919060010190610093565b506100ba9291506100be565b5090565b6100d891905b808211156100ba57600081556001016100c4565b90565b6103c6806100ea6000396000f3fe608060405234801561001057600080fd5b506004361061004c5760003560e01c806341c0e1b514610051578063457094cc1461005b578063a413686214610063578063cfae321714610109575b600080fd5b610059610186565b005b61005961019e565b6100596004803603602081101561007957600080fd5b81019060208101813564010000000081111561009457600080fd5b8201836020820111156100a657600080fd5b803590602001918460018302840111640100000000831117156100c857600080fd5b91908080601f01602080910402602001604051908101604052809392919081815260200183838082843760009201919091525092955061024c945050505050565b610111610263565b6040805160208082528351818301528351919283929083019185019080838360005b8381101561014b578181015183820152602001610133565b50505050905090810190601f1680156101785780820380516001836020036101000a031916815260200191505b509250505060405180910390f35b6000546001600160a01b031633141561019c5733ff5b565b604080516020808252600180546002600019610100838516150201909116049183018290527f2a6a5a1825051fcbfa57a90aa1b69d86a5bc5318d93d5144d8ec18c52a664b609390929182918201908490801561023c5780601f106102115761010080835404028352916020019161023c565b820191906000526020600020905b81548152906001019060200180831161021f57829003601f168201915b50509250505060405180910390a1565b805161025f9060019060208401906102f9565b5050565b60018054604080516020601f600260001961010087891615020190951694909404938401819004810282018101909252828152606093909290918301828280156102ee5780601f106102c3576101008083540402835291602001916102ee565b820191906000526020600020905b8154815290600101906020018083116102d157829003601f168201915b505050505090505b90565b828054600181600116156101000203166002900490600052602060002090601f016020900481019282601f1061033a57805160ff1916838001178555610367565b82800160010185558215610367579182015b8281111561036757825182559160200191906001019061034c565b50610373929150610377565b5090565b6102f691905b80821115610373576000815560010161037d56fea265627a7a72315820be06393a083c6420daf15851918cd6e4340583bc08001e87d26c377397428ff764736f6c634300050e0032",
  "source": "/*\n * Copyright ConsenSys Software Inc.\n *\n * This Source Code Form is subject to the terms of the Mozilla Public License, v. 2.0. \n * If a copy of the MPL was not distributed with this file, You can obtain one at \n *\n * http://mozilla.org/MPL/2.0/\n *\n * Unless required by applicable law or agreed to in writing, software distributed under the License is distributed on\n * an \"AS IS\" BASIS, WITHOUT WARRANTIES OR CONDITIONS OF ANY KIND, either express or implied. See the License for the\n * specific language governing permissions and limitations under the License.\n *\n * SPDX-License-Identifier: MPL-2.0\n */\n pragma solidity >=0.5.0 <0.6.0;\n\ncontract mortal {\n    /* Define variable owner of the type address*/\n    address owner;\n\n    /* this function is executed at initialization \n       and sets the owner of the contract */\n    constructor() public { owner = msg.sender; }\n\n    /* Function to recover the funds on the contract */\n    function kill() public { if (msg.sender == owner) selfdestruct(msg.sender); }\n}\n\ncontract greeter is mortal {\n    /* define variable greeting of the type string */\n    string greeting = \"test123\";\n    event Approval(string _g);\n\n    function setGreeting(string memory _greeting) public {\n        greeting = _greeting;\n    }\n\n    /* main function */\n    function greet() public view returns (string memory) {\n        return greeting;\n    }\n\n    function fire() public {\n        emit Approval(greeting);\n    }\n}\n",
  "sourcePath": "/Users/edgema/Documents/apps/web3js-besu-samples/contracts/Greeter/Greeter.sol",
  "compiler": {
    "name": "solc",
    "version": "0.5.14+commit.01f1aaa4.Emscripten.clang"
  },
  "schemaVersion": "3.2.4",
  "updatedAt": "2020-09-21T06:26:53.706Z",
  "devdoc": {
    "methods": {}
  },
  "userdoc": {
    "methods": {}
  }
}