{
  "contractName": "mortal",
  "abi": [
    {
      "inputs": [],
      "payable": false,
      "stateMutability": "nonpayable",
      "type": "constructor"
    },
    {
      "constant": false,
      "inputs": [],
      "name": "kill",
      "outputs": [],
      "payable": false,
      "stateMutability": "nonpayable",
      "type": "function"
    }
  ],
  "bytecode": "0x6080604052348015600f57600080fd5b50600080546001600160a01b031916331790556081806100306000396000f3fe6080604052348015600f57600080fd5b506004361060285760003560e01c806341c0e1b514602d575b600080fd5b60336035565b005b6000546001600160a01b0316331415604a5733ff5b56fea265627a7a72315820c7f29955def38e6903bc62450aa6fd88fb0f1a694a5d305f4abe2883edc5ab6464736f6c634300050e0032",
  "source": "pragma solidity >=0.5.0 <0.6.0;\n\ncontract mortal {\n    /* Define variable owner of the type address*/\n    address owner;\n\n    /* this function is executed at initialization \n       and sets the owner of the contract */\n    constructor() public { owner = msg.sender; }\n\n    /* Function to recover the funds on the contract */\n    function kill() public { if (msg.sender == owner) selfdestruct(msg.sender); }\n}\n\ncontract greeter is mortal {\n    /* define variable greeting of the type string */\n    string greeting = \"test123\";\n    event Approval(string _g);\n\n    function setGreeting(string memory _greeting) public {\n        greeting = _greeting;\n    }\n\n    /* main function */\n    function greet() public view returns (string memory) {\n        return greeting;\n    }\n\n    function fire() public {\n        emit Approval(greeting);\n    }\n}\n",
  "sourcePath": "/Users/edgema/Documents/apps/web3js-besu-mcldg/contracts/Greeter/Greeter.sol",
  "compiler": {
    "name": "solc",
    "version": "0.5.14+commit.01f1aaa4.Emscripten.clang"
  },
  "schemaVersion": "3.2.4",
  "updatedAt": "2020-09-15T08:18:37.379Z",
  "devdoc": {
    "methods": {}
  },
  "userdoc": {
    "methods": {}
  }
}