{
  "contractName": "Simple",
  "abi": [
    {
      "inputs": [],
      "payable": false,
      "stateMutability": "nonpayable",
      "type": "constructor"
    },
    {
      "anonymous": false,
      "inputs": [
        {
          "indexed": false,
          "internalType": "address",
          "name": "_to",
          "type": "address"
        },
        {
          "indexed": false,
          "internalType": "uint256",
          "name": "_amount",
          "type": "uint256"
        }
      ],
      "name": "stored",
      "type": "event"
    },
    {
      "constant": false,
      "inputs": [
        {
          "internalType": "uint256",
          "name": "_amount",
          "type": "uint256"
        }
      ],
      "name": "store",
      "outputs": [],
      "payable": false,
      "stateMutability": "nonpayable",
      "type": "function"
    },
    {
      "constant": true,
      "inputs": [],
      "name": "value",
      "outputs": [
        {
          "internalType": "uint256",
          "name": "",
          "type": "uint256"
        }
      ],
      "payable": false,
      "stateMutability": "view",
      "type": "function"
    },
    {
      "constant": true,
      "inputs": [],
      "name": "sender",
      "outputs": [
        {
          "internalType": "address",
          "name": "",
          "type": "address"
        }
      ],
      "payable": false,
      "stateMutability": "view",
      "type": "function"
    }
  ],
  "bytecode": "0x608060405234801561001057600080fd5b50600080546001600160a01b03191633179055610133806100326000396000f3fe6080604052348015600f57600080fd5b5060043610603c5760003560e01c80633fa4f2451460415780636057361d14605957806367e404ce146075575b600080fd5b60476097565b60408051918252519081900360200190f35b607360048036036020811015606d57600080fd5b5035609d565b005b607b60ef565b604080516001600160a01b039092168252519081900360200190f35b60025490565b604080513381526020810183905281517fc9db20adedc6cf2b5d25252b101ab03e124902a73fcb12b753f3d1aaa2d8f9f5929181900390910190a1600255600180546001600160a01b03191633179055565b6001546001600160a01b03169056fea265627a7a72315820fc33ba2c8d343b9489d98c782c51dfd22abc9b9ec7e19369b98d194c728b875364736f6c634300050e0032",
  "source": "/*\n * Copyright ConsenSys Software Inc.\n *\n * This Source Code Form is subject to the terms of the Mozilla Public License, v. 2.0. \n * If a copy of the MPL was not distributed with this file, You can obtain one at \n *\n * http://mozilla.org/MPL/2.0/\n *\n * Unless required by applicable law or agreed to in writing, software distributed under the License is distributed on\n * an \"AS IS\" BASIS, WITHOUT WARRANTIES OR CONDITIONS OF ANY KIND, either express or implied. See the License for the\n * specific language governing permissions and limitations under the License.\n *\n * SPDX-License-Identifier: MPL-2.0\n */\npragma solidity >=0.5.0 <0.6.0;\n\n// compile with:\n// solc Simple.sol --bin --abi --optimize --overwrite -o .\n// then create web3j wrappers with:\n// web3j solidity generate -b ./Simple.bin -a ./Simple.abi -o ../../../../../ -p org.hyperledger.besu.tests.web3j.generated\ncontract Simple {\n    address owner;\n    event stored(address _to, uint _amount);\n    address _sender;\n    uint _value;\n\n    constructor() public {\n        owner = msg.sender;\n    }\n\n    function store(uint _amount) public {\n        emit stored(msg.sender, _amount);\n        _value = _amount;\n        _sender = msg.sender;\n    }\n\n    function value()  view public  returns (uint) {\n        return _value;\n    }\n\n    function sender() view public returns (address) {\n        return _sender;\n    }\n}\n",
  "sourcePath": "/Users/edgema/Documents/apps/web3js-besu-mcldg/contracts/Simple/Simple.sol",
  "compiler": {
    "name": "solc",
    "version": "0.5.14+commit.01f1aaa4.Emscripten.clang"
  },
  "schemaVersion": "3.2.4",
  "updatedAt": "2020-09-15T08:18:37.380Z",
  "devdoc": {
    "methods": {}
  },
  "userdoc": {
    "methods": {}
  }
}